:100000000C9401010C941E010C941E010C941E0111
:100010000C941E010C941E010C941E010C941E01E4
:100020000C941E010C941E010C941E010C941E01D4
:100030000C941E010C941E010C941E010C941E01C4
:100040000C941E010C941E010C941E010C941E01B4
:100050000C941E010C941E010C941E010C941E01A4
:100060000C941E010C941E01084AD73B3BCE016E36
:1000700084BCBFFDC12F3D6C74319ABD56833DDAFF
:100080003D00C77F11BED9E4BB4C3E916BAAAABE0E
:10009000000000803F6E616E00696E6600636469F7
:1000A0006E6F70737578585B656667454647006E7E
:1000B00066696E69747900616E000000204100007D
:1000C000C84200401C4620BCBE4CCA1B0E5AAEC5DE
:1000D0009D74CDCCCC3D0AD7233C17B7D13877CC13
:1000E0002B329595E6241FB14F0A2A252E33662C14
:1000F000252E33662C252E33662C252E33662C2593
:100100002E33662C230D0A0000407A10F35A00A00B
:10011000724E18090010A5D4E80000E876481700D0
:1001200000E40B54020000CA9A3B000000E1F50510
:10013000000080969800000040420F000000A0865A
:1001400001000000102700000000E803000000008C
:100150006400000000000A00000000000100000030
:1001600000002C76D888DC674F0823DFC1DFAE594A
:10017000E1B1B796E5E3E453C63AE651997696E8DD
:10018000E6C28426EB898C9B62ED407C6FFCEFBC61
:100190009C9F40F2BAA56FA5F490055A2AF75C938C
:1001A0006B6CF9676DC11BFCE0E40D47FEF520E6C2
:1001B000B500D0ED902E0300943577050080841EA5
:1001C000080000204E0A000000C80C333333330F00
:1001D000986E12831141EF8D2114893BE65516CF9D
:1001E000FEE6DB18D1844B381BF77C1D901DA4BBA9
:1001F000E424203284725E228100C9F124ECA1E55E
:100200003D2711241FBECFEFD8E0DEBFCDBF11E0E8
:10021000A0E0B1E0E8E8FAE202C005900D92A63055
:10022000B107D9F711E0A6E0B1E001C01D92A237F5
:10023000B107E1F70E94660D0C9442150C94000082
:1002400083E08093B800E9EBF0E0808181608083F7
:10025000ECEBF0E0808184608083089584EA8093F1
:10026000BC008091BC0087FFFCCF089584E9809397
:10027000BC0008958093BB0084E88093BC0080910B
:10028000BC0087FFFCCF089584EC8093BC00809174
:10029000BC0087FFFCCF8091BB00089584E8809369
:1002A000BC008091BC0087FFFCCF8091BB0008950B
:1002B0008091B900887F08951F93CF93DF931F9299
:1002C000CDB7DEB7182F69830E942E01812F880FCA
:1002D0000E943A016981862F0E943A010E942E01F4
:1002E000812F880F81600E943A010E944E0194E99B
:1002F0009093BC0090E00F90DF91CF911F910895F3
:10030000CF93DF9300D01F92CDB7DEB74B836A83C4
:1003100089830E942E018981880F0E943A016A8197
:10032000862F0E943A014B81842F0E943A0184E972
:100330008093BC000F900F900F90DF91CF910895A4
:10034000E1E8F0E080818560808310928500109262
:1003500084000895CF93DF93C4E8D0E06881798169
:100360007093090160930801882777FD8095982F85
:100370000E94F80F20E030E041E656E40E948E0F24
:1003800060935201709353018093540190935501EF
:1003900019821882DF91CF9108958F929F92AF9228
:1003A000BF92CF92DF92EF92FF920F931F93CF9362
:1003B000DF930E94AA0169E289E60E945C019093A2
:1003C0005D0180935C016BE289E60E945C01909381
:1003D0001701809316016DE289E60E945C019093FB
:1003E0001B0180931A0168E289E60E945C019093E8
:1003F0003901809338016AE289E60E945C0190939A
:100400005B0180935A016CE289E60E945C01909343
:100410004D0180934C018091200190912101A09188
:100420002201B09123018093560190935701A0932C
:100430005801B093590180910E0190910F01A09144
:100440001001B09111018093300190933101A0937C
:100450003201B093330180915C0190915D018F3F37
:10046000910579F0009769F0982F8827209138013D
:1004700030913901822B932B9093070180930601D1
:100480000CC0109207011092060110922C011092DC
:100490002D0110922E0110922F0180911601909142
:1004A00017018F3F910579F0009769F0982F882701
:1004B00020915A0130915B01822B932B90935F0125
:1004C00080935E010CC010925F0110925E01109249
:1004D000640110926501109266011092670180918B
:1004E0001A0190911B018F3F910579F0009769F0F7
:1004F000982F882720914C0130914D01822B932B0E
:10050000909319018093180104C010921901109260
:1005100018016091060170910701882777FD809589
:10052000982F0E94F80F29E23CE54FE05CE30E941F
:10053000D4106B017C01862F9D2DAE2DBF2D809395
:10054000200190932101A0932201B0932301609197
:100550005E0170915F01882777FD8095982F0E943A
:10056000F80F29E23CE54FE05CE30E94D4108B01D8
:10057000D82FC92F9E01862F912FA32FB22F8093A2
:100580000E0190930F01A0931001B09311018C2DD7
:100590009D2DAE2DBF2D8093600190936101A0939E
:1005A0006201B0936301CE01402F512F692F782F44
:1005B00040934E0150934F0160935001709351014D
:1005C00020E030E0A9016C2D7D2D8E2D9F2D0E9405
:1005D0008A0F882389F18090560190905701A0904E
:1005E0005801B090590120E030E0A901C501B401E3
:1005F0000E948A0F882301F12C2D3D2D4E2D5F2D59
:10060000C501B4010E94FE0E2091520130915301A8
:1006100040915401509155010E94D41020E030E0E7
:1006200040E05FE30E94D41060932C0170932D0191
:1006300080932E0190932F0120E030E0A901FE016C
:10064000602F712F8F2F9C2F0E948A0F882391F18A
:10065000C0903001D0903101E0903201F090330130
:1006600020E030E0A901C701B6010E948A0F88236B
:1006700009F1CE01202F312F492F5C2FC701B60180
:100680000E94FE0E2091520130915301409154017D
:10069000509155010E94D41020E030E040E05FE32B
:1006A0000E94D41060936401709365018093660189
:1006B00090936701DF91CF911F910F91FF90EF9081
:1006C000DF90CF90BF90AF909F908F900895CF9282
:1006D000DF92EF92FF9220912C0130912D014091F9
:1006E0002E0150912F016091280170912901809174
:1006F0002A0190912B010E94FE0E23E333E343E78E
:100700005FE30E94D4106B017C012DEC3CEC4CE4C7
:100710005DE3609112017091130180911401909139
:1007200015010E94D4109B01AC01C701B6010E94C3
:10073000FE0E609328017093290180932A01909303
:100740002B01209164013091650140916601509127
:10075000670160913A0170913B0180913C01909159
:100760003D010E94FE0E23E333E343E75FE30E9473
:10077000D4106B017C012DEC3CEC4CE45DE360910A
:1007800024017091250180912601909127010E94FA
:10079000D4109B01AC01C701B6010E94FE0E60930C
:1007A0003A0170933B0180933C0190933D01FF908F
:1007B000EF90DF90CF90089520E030E00BC0000074
:1007C0000000000000000000000000000000000029
:1007D0002F5F3F4F2817390790F3089540E050E00E
:1007E00013C020E030E00000000000000000000026
:1007F00000000000000000002F5F3F4F63E0283E34
:10080000360789F74F5F5F4F4817590750F3089530
:100810005F9A08955F9808959BB1937C9BB92BB123
:10082000992787FD90958F709070880F991F880F7A
:10083000991F282B2BB95E9A81E090E00E94DC037F
:100840005E9881E090E00E94DC0308951F93182FCA
:1008500082958F700E940C04812F8F700E940C046F
:1008600080E590E00E94DC031F9108955F9882303C
:1008700041F0833041F0813011F480E405C080E024
:1008800003C084E101C084E5860F80680E942604CD
:10089000089583E060E00E943604089582E060E0FD
:1008A0000E943604089581E060E00E9436040895B5
:1008B00080E060E00E94360408955F9A0E9426045A
:1008C00008950E945D0480E090E00895CF93DF9347
:1008D000EC0105C02196F90184910E945D049E01FE
:1008E000FE0184918823B1F7DF91CF910895CF92D3
:1008F000DF92EF92FF920F931F93CF93DF93EC0160
:1009000097FF06C08DE20E945D04D095C195DF4F30
:1009100040E000E117E2EE24FF24DC2ECD2ECE01D4
:10092000B8010E943A11CB016115710529F44423E5
:1009300019F40130110551F4805D0E945D048D2D84
:100940009C2DB8010E943A11EC0141E004361105DA
:1009500049F4442319F480E30E945D048EE20E946E
:100960005D0441E0C8016AE070E00E943A118B0129
:100970000894E11CF11C85E0E816F10471F6DF91A2
:10098000CF911F910F91FF90EF90DF90CF9008953E
:10099000CF92DF92EF92FF920F931F93CF93DF934B
:1009A000EC0197FF06C08DE20E945D04D095C195D1
:1009B000DF4F40E000E117E2EE24FF24DC2ECD2ED5
:1009C000CE01B8010E943A11CB016115710529F4DD
:1009D000442319F40130110551F4805D0E945D0437
:1009E0008D2D9C2DB8010E943A11EC0141E0C80107
:1009F0006AE070E00E943A118B010894E11CF11C3E
:100A000085E0E816F104D1F6DF91CF911F910F91A7
:100A1000FF90EF90DF90CF9008955F9882E00E9462
:100A2000260482E390E00E94EE0308955F9881E03F
:100A30000E94260482E390E00E94EE0382E00E947E
:100A4000260482E390E00E94EE0308958AB18C6F41
:100A50008AB984E690E00E94EE035F9883E00E94EA
:100A60000C0486E090E00E94EE0383E00E940C04F8
:100A70008AEF90E00E94DC0383E00E940C048AEF7E
:100A800090E00E94DC0382E00E940C0488E20E9455
:100A900026048CE00E94260481E00E94260485E062
:100AA00090E00E94EE038CE00E94260486E00E9403
:100AB000260484E10E9426040E94160508951092DF
:100AC000C50087E08093C40088E18093C10086E080
:100AD0008093C20067E875E087E795E00C948E127A
:100AE0009091C00095FFFCCF8093C60008950E94AE
:100AF000700580E090E008958091C00080780895AE
:100B00008091C00087FFFCCF8091C60008950E94AD
:100B10008005282F332727FD3095932F0895A3E1D3
:100B2000B0E0E5E9F5E00C944E117C015B018A012F
:100B3000FC0117821682838181FD03C06DC386018B
:100B400005C088248394912C8C0E9D1EF7019381FF
:100B5000F50193FD859193FF81915F01882309F44D
:100B600057C3853239F493FD859193FF81915F01DD
:100B7000853231F4B70190E00E9419136801DFCF8C
:100B8000412C512C20E02032A8F48B3261F028F463
:100B9000803251F0833271F40BC08D3239F08033E2
:100BA00049F4216028C02260246025C0286023C049
:100BB000206121C027FD27C0382F30533A3078F408
:100BC00026FF06C0FAE04F9E300D1124432E13C0BD
:100BD0008AE0589E300D1124532E20620CC08E32B4
:100BE00021F426FD15C3206406C08C3611F420685C
:100BF00002C0883641F4F50193FD859193FF819100
:100C00005F018111C0CF982F9554933018F4206163
:100C1000805E06C0982F9556933008F0A1C12F7EB4
:100C200026FD02C056E0452E4FE3742E7222853613
:100C300019F4F0E47F2A07C0863619F420E8722AF6
:100C400002C041104A9477FE07C03BE3341548F0D8
:100C5000342C339427E00DC087E0841530F0242D28
:100C600007C027E03CE3332E04C027E097E0492E7D
:100C7000312C680194E0C90ED11CF80160817181AA
:100C800082819381032DA4010E9485118C01298109
:100C90002C8720FF02C023FF07C071FC08C072FE32
:100CA00009C080E2682E07C0BDE26B2E04C0ABE233
:100CB0006A2E01C0612C8C858C70A1F1662011F028
:100CC00084E001C083E0851510F0512C0BC0581A48
:100CD00073FC08C0B70180E290E00E9419135A9497
:100CE000C9F7F3CF662029F0B701862D90E00E9466
:100CF00019133C8533FD03C009E910E00CC005E978
:100D000010E009C071108052B70190E00E941913E1
:100D10000F5F1F4F02C080E17822F801849181119A
:100D2000F1CF73C277FE0EC0300E2C8524FF04C0B5
:100D30008A81813309F43A9413144CF538E0331561
:100D400048F12CC076FC2AC0242D30E02017310752
:100D500044F00C3F8FEF180724F090E8792A01C087
:100D60004A94442049F0E2E0F0E0EC0FFD1FE40D6E
:100D7000F11D80818033A1F377FE10C0342C3394B1
:100D8000242D30E00217130744F4401A07C033241F
:100D9000339404C0F8E03F2E01C0412C77FE07C019
:100DA000101611063CF498012F5F3F4F05C025E057
:100DB00030E002C021E030E0662011F02F5F3F4FAD
:100DC000442031F0442D50E04F5F5F4F240F351F1A
:100DD000452D50E02417350714F4521A01C0512C48
:100DE000872D897049F406C0B70180E290E00E9427
:100DF00019135A945110F8CF662029F0B701862DA7
:100E000090E00E94191373FC09C006C0B70180E38B
:100E100090E00E9419135A945110F8CF77FE53C0F6
:100E2000380117FF02C0612C712C1E861D869801A7
:100E300023193109388B2F87180126183708280CF9
:100E4000391C642D70E022273327261B370B3A8B81
:100E5000298B3FEF6316730629F4B7018EE290E009
:100E60000E941913061517055CF02F853889261581
:100E7000370534F4ED85FE85E20DF31D818101C057
:100E800080E331E0631A71082D853E852F5F3F4F67
:100E90003E872D8729893A89621673062CF0B7019F
:100EA00090E00E941913D5CF6016710649F49A811B
:100EB000963328F4953321F43C8534FD01C081E359
:100EC000B70190E04AC08A81813319F02C852F7ECA
:100ED0002C87B70190E00E941913411005C074FEE1
:100EE00016C085E490E015C0B7018EE290E00E9444
:100EF0001913E2E06E2EF401E60DF11D6394B701C3
:100F0000808190E00E9419134A94A9F7E8CF85E602
:100F100090E0B7010E94191317FD06C001151105D5
:100F200041F43C8534FF05C01195019511098DE20E
:100F300001C08BE2B70190E00E94191380E303C067
:100F40008F5F0A5011090A301105D4F7B70190E0FC
:100F50000E941913B701C801C0960E94191355C108
:100F6000833631F0833781F0833509F05EC024C0C9
:100F7000680182E0C80ED11CF80180818983662453
:100F80006394712C840114C06801F2E0CF0ED11C6F
:100F9000F8010081118126FF03C0642D70E002C0BA
:100FA0006FEF7FEFC8012B8B0E9483123C012B89CE
:100FB0006FE7462E422217C06801F2E0CF0ED11C27
:100FC000F8010081118126FF03C0642D70E002C08A
:100FD0006FEF7FEFC8012B8B0E9478123C012B89A9
:100FE00050E8452E422A43FC1CC006C0B70180E2EF
:100FF00090E00E9419135A94852D90E068167906A6
:10100000A8F30FC0F80147FC859147FE81918F013D
:10101000B70190E00E94191351105A94F1E06F1A31
:1010200071086114710471F7F0C0843611F08936CB
:1010300061F5680127FF09C034E0C30ED11CF80137
:1010400060817181828193810AC0F2E0CF0ED11C50
:10105000F80160817181882777FD8095982F4FE690
:10106000742E722297FF09C09095809570956195B6
:101070007F4F8F4F9F4FF0E87F2A2AE030E0A40196
:101080000E948513682E681847C0853731F43FEEFB
:10109000732E72222AE030E024C099EF792E72225A
:1010A0008F36B9F020F4883509F0B2C00DC0803712
:1010B00021F0883709F0ACC002C020E1722A74FE2A
:1010C0000BC034E0732A08C024FF09C086E0782AE8
:1010D00006C028E030E005C020E130E002C020E199
:1010E00032E0680177FE09C094E0C90ED11CF80116
:1010F000608171818281938108C0F2E0CF0ED11CA2
:10110000F8016081718180E090E0A4010E94851364
:10111000682E6818FFE77F2276FE0BC0072D0E7F32
:10112000641450F474FE0AC072FC08C0072D0E7ED1
:1011300005C0162D072D03C0162D01C0142D04FF68
:101140000CC0FE01E60DF11D8081803311F4097E93
:1011500008C002FF05C01E5F04C0802F867809F01A
:101160001F5F03FD12C000FF0DC0462C151550F483
:10117000450C411A152D06C0B70180E290E00E948F
:1011800019131F5F1515C0F304C0151510F4511A7B
:1011900001C0512C04FF10C0B70180E390E00E9411
:1011A000191302FF1EC001FF03C088E590E002C0D2
:1011B00088E790E0B7010CC0802F867891F001FDA0
:1011C00002C080E201C08BE207FD8DE2B70190E032
:1011D0000E94191306C0B70180E390E00E94191322
:1011E0004A946414C0F36A94F401E60DF11DB7014A
:1011F000808190E00E9419136110F5CF06C0B701FD
:1012000080E290E00E9419135A945110F8CF97CCC5
:10121000F7012681378102C02FEF3FEFC9016396A6
:10122000E2E10C946A1120FD09C0FC0123FD05C018
:1012300022FF02C073836283518340830895CF925B
:10124000DF92EF92FF920F931F9344FD10C046FD73
:1012500010C0DB01FC01AA0FBB1FEE1FFF1F109483
:10126000D1F76A0F7B1F8E1F9F1F31E003C033E051
:1012700001C034E0660F771F881F991F3150D1F7E6
:101280006B017C01C20ED11CE11CF11C970186018F
:10129000B601C9011F910F91FF90EF90DF90CF90A1
:1012A00008950F931F93CF93DF938C01C8010E9481
:1012B000D912EC0197FD08C00E945D12892BB1F78D
:1012C000B801CE010E946A13CE01DF91CF911F9128
:1012D0000F9108956F927F929F92AF92BF92CF929B
:1012E000DF92EF92FF920F931F93CF93DF931F92A2
:1012F000CDB7DEB78C013B015A0129830E94D91278
:10130000BC01772729816B32710521F06D3271059F
:1013100071F4206881E0681A710811F480E072C0ED
:10132000C80129830E94D912298197FDF7CF5DEF6B
:10133000952E9222322F307329F5803319F5E1E092
:101340006E1A710809F44AC0C80129830E94D91293
:10135000298197FD43C0883711F0883561F4F2E4A4
:101360009F2A21E0621A7108C9F1C8010E94D912AE
:1013700097FF08C033C026FF03C0E2E09E2A02C0E8
:10138000F2E19F2AC12CD12C7601282F205328303E
:1013900080F094FE04C0B8010E946A131CC02A3079
:1013A00040F096FEF8CF2F7D322F3151363098F72E
:1013B0002750492DC701B6010E941F096B017C010E
:1013C00022E0922A81E0681A710859F0C8010E944F
:1013D000D91297FFDACF91FC04C0A0CFC12CD12C39
:1013E000760197FE08C0F094E094D094C094C11C9C
:1013F000D11CE11CF11C292DB701A601C5010E94D9
:10140000130981E00F90DF91CF911F910F91FF9011
:10141000EF90DF90CF90BF90AF909F907F906F90B4
:1014200008954F925F927F928F929F92AF92BF9258
:10143000CF92DF92EF92FF920F931F93CF93DF93A0
:10144000CDB7DEB7A0970FB6F894DEBF0FBECDBF05
:101450006C015B017A018901FE01319680E2DF01B6
:101460001D928A95E9F7D60113967C9020E030E032
:10147000812CB0E0912CCF0141E050E0F80173FCE9
:10148000A59173FEA1918F01A11103C000E010E0AE
:101490007FC0AE3519F42115310551F1692D70E089
:1014A000621773073CF4AD3561F1AD3219F4BB231B
:1014B00011F103C0B11101C08A2E6A2F669566959D
:1014C0006695FC01E60FF11D6A2F67702A0102C0C4
:1014D000440C551C6A95E2F7B2017081762B70833B
:1014E000A81559F0A81510F4AF5FE7CFA150E5CFCC
:1014F0009924939403C0B1E001C0B0E02F5F3F4F47
:10150000BDCFBB2319F08E8180628E83911003C002
:10151000992493940BC0FE013196CE0181962081CF
:1015200020952193E817F907D1F7F2CFC6010E9461
:10153000D91297FD26C0282F269526952695E1E0FD
:10154000F0E0EC0FFD1FE20FF11D208130E0AC0157
:101550004770552702C0359527954A95E2F720FD3B
:1015600004C0B6010E946A130CC0E114F10419F022
:10157000D7018D937D01B1E0AB1AB108912CB1F682
:1015800002C0911083CFE114F10411F0F701108231
:10159000C801A0960FB6F894DEBF0FBECDBFDF9195
:1015A000CF911F910F91FF90EF90DF90CF90BF9060
:1015B000AF909F908F907F905F904F900895A6E09E
:1015C000B0E0E5EEFAE00C944E111C017E836D83D1
:1015D0005A8349830E94D9123C0199278B32910585
:1015E00019F08D97A1F402C010E001C010E88D81C0
:1015F0009E8101979E838D83892B11F480E038C1F1
:10160000C1010E94D9123C0197FF02C0F7CF10E040
:10161000C3010E9465128936910559F18E369105F4
:1016200009F03EC021C0ED81FE813197FE83ED833C
:10163000EF2B71F0C1010E94D9126C0197FD08C017
:101640000E9465120817C9F0B101C6010E946A1311
:10165000F2EBEF16F0E0FF0689F6C12CD12C80E802
:10166000E82E8FE7F82EF5C007EBE02E00E0F02E15
:1016700004C0BFEAEB2EB0E0FB2EF7018FEFE81AB3
:10168000F80A04910111CFCF9AEBE91690E0F90620
:1016900021F7C12CD12CA0ECEA2EAFE7FA2ED9C04D
:1016A000C12CD12C7601412C512C262D20532A30CF
:1016B00018F5012F0260812F887012FF06C081117A
:1016C00021C0EFEF4E1A5E0A1DC0882319F0F1E029
:1016D0004F1A510840E2C701B6010E941F096B0171
:1016E0007C0188E9C81689E9D806E80689E1F80688
:1016F00048F0012F066006C02E3FA1F413FD12C072
:10170000012F0860ED81FE813197FE83ED83EF2B81
:1017100041F0C1010E94D9123C01102F97FFC5CFA3
:1017200001C0102F11FF6ACF862D853619F0853440
:1017300009F04DC08D819E8101979E838D83892BF9
:1017400009F45CCFC1010E94D9123C0197FD56CF2C
:1017500099278B32910519F08D9769F41061ED810D
:10176000FE813197FE83ED83EF2B09F447CFC10152
:101770000E94D9123C01C301C0970A9708F03ECFDE
:1017800060E070E0262D2053882777FD8095982F04
:1017900040E20E941F094B015C018D819E810197EF
:1017A0009E838D83892B59F0C1016B837C830E94BA
:1017B000D9123C01C0976B817C810A9718F314FF02
:1017C00004C06627772768197909460E571EED81F0
:1017D000FE81EF2B31F077FC04C0B101C3010E9400
:1017E0006A13C701B6010E94F60F6B017C0157FE18
:1017F00008C0519441945108F6EE6F2EF0E07F2E10
:1018000004C0EEEC6E2EE0E07E2E4301F8E18F1A6C
:10181000910870E2A72EB12C11C0F301859195912A
:10182000A591B491282F392F4A2F5B2FC701B601FC
:101830000E94D4106B017C014A185B084A145B04B7
:1018400060F784E0681A7108B694A7946814790464
:10185000A9F717FF04C0F7FAF094F7F8F094E981BC
:10186000FA81309721F0C082D182E282F38281E056
:101870002696E2E10C946A11A1E0B0E0E2E4FCE01B
:101880000C9450118C012B014A01FC011782168225
:10189000712C05C18F2D90E00E945D12892B21F0E3
:1018A000C8010E945109FBC0F5E2FF120AC0F20113
:1018B000D3FC3591D3FE31912F01353271F425E2FD
:1018C000F22EC8010E94D91297FDF4C0F81609F44F
:1018D000E6C0B8010E946A13EFC03A3241F4D3FC6B
:1018E0003591D3FE31912F016624639401C0612CA0
:1018F000E12CF12C0FC0F2E06F2AB70180E090E0FC
:1019000040E20E941F097B01F201D3FC3591D3FE16
:1019100031912F01232F20532A3068F361FE04C038
:10192000E114F10421F4C8C0EE24EA94FE2C383608
:1019300019F03C3699F40AC0F201D3FC3591D3FE7C
:1019400031912F01383651F4F8E06F2A84E0682A8B
:10195000F201D3FC3591D3FE31912F01332309F4E9
:10196000ABC0632F70E08DE990E039830E946D1267
:101970003981892B09F4A0C060FC07C0F401C08044
:10198000D18082E0880E911C02C0C12CD12C3E3641
:1019900051F4F8014681578160E070E0262DC601C0
:1019A0000E9413097CC03336A9F461FC03C0EE2405
:1019B000E394F12CC8010E94D91297FD7BC0C11499
:1019C000D10419F0F60181936F01F1E0EF1AF108EB
:1019D00089F763C03B3559F49201A601B701C801EC
:1019E0000E94110A2C01009709F057C051C0C8018C
:1019F00039830E945109398197FD5CC03F36C1F19E
:101A000038F4343691F13936A9F13835D1F52AC098
:101A1000333749F018F43037A1F524C0353729F1B0
:101A2000383779F51FC0C8010E94D9125C0197FDB3
:101A300013C00E945D12892B29F0B801C5010E94D4
:101A40006A130AC0C114D10419F0F601A1926F0102
:101A5000F1E0EF1AF10839F7C114D104F1F0F60101
:101A600010821BC0F0E46F2A05C080E2682A02C021
:101A700090E1692A262DA601B701C8010E946A09D2
:101A800005C0A601B701C8010E94DF0A811105C087
:101A9000F8018381807371F40FC060FE7394F801C4
:101AA000D380F201D3FCF590D3FEF1902F01F11019
:101AB000F1CE02C0772019F0272D30E002C02FEFC1
:101AC0003FEFC9012196E0E10C946C11CF93DF93B5
:101AD000CDB7DEB760970FB6F894DEBF0FBECDBFAF
:101AE0002198299A0E945F05FE0131968EE0DF0160
:101AF0001D928A95E9F783E08C8387E795E09A87C2
:101B0000898787E895E09C878B87F0936B01E0934A
:101B10006A01F0936901E09368010E9420014FE09F
:101B200060E289E60E94800140E063E289E60E946B
:101B3000800147E260E288E10E94800140E061E2CA
:101B400088E10E94800140E363E288E10E94800115
:101B50000E94A0010E94CD0168E288E10E945C0120
:101B60006C0169E288E10E945C01888B1F866F85A9
:101B700078896C297D2954E0759567955A95E1F728
:101B8000882777FD8095982F0E94F80F60930A01AF
:101B900070930B0180930C0190930D016AE288E130
:101BA0000E945C016C016BE288E10E945C01182FCD
:101BB00000E0B8016C297D29E4E075956795EA9508
:101BC000E1F7882777FD8095982F0E94F80F6093A2
:101BD00034017093350180933601909337016CE2A4
:101BE00088E10E945C016C016DE288E10E945C0169
:101BF000382E25E237E94FE75BE360910A017091E7
:101C00000B0180910C0190910D010E94D4104B01A9
:101C10005C01862F992DAA2DBB2D80930A019093EC
:101C20000B01A0930C01B0930D0125E237E94FE7BA
:101C30005BE36091340170913501809136019091A0
:101C400037010E94D4102B013C01862F952DA62D23
:101C5000B72D8093340190933501A0933601B09352
:101C60003701F32CE12CB7016C297D29F4E075953F
:101C70006795FA95E1F7882777FD8095982F0E9460
:101C8000F80F25E237E94FE75BE30E94D4101B0110
:101C90006C01862F932DAC2DBD2D80931C0190934C
:101CA0001D01A0931E01B0931F0120E030E0A901A7
:101CB000642D752D862D972D0E948A0F882309F497
:101CC0004EC020E030E0A901682D792D8A2D9B2D92
:101CD0000E948A0F882309F442C0242D352D462DF9
:101CE000572D622D732D8C2D9D2D0E948E0F0E94DD
:101CF000620F905820E030E044E353E40E94D41097
:101D00002BED3FE049E450E40E948E0F60931201F6
:101D1000709313018093140190931501282D392D90
:101D20004A2D5B2D622D732D8C2D9D2D0E948E0FC3
:101D30000E94620F905820E030E044E353E40E9498
:101D4000D4102BED3FE049E450E40E948E0F6093E5
:101D500024017093250180932601909327010E940E
:101D6000670380913D018F9380913C018F93809117
:101D70003B018F9380913A018F9380912B018F9338
:101D800080912A018F93809129018F93809128015E
:101D90008F9380911F018F9380911E018F9380916B
:101DA0001D018F9380911C018F93809137018F9338
:101DB000809136018F93809135018F93809134010A
:101DC0008F9380910D018F9380910C018F9380915F
:101DD0000B018F9380910A018F938AEE90E09F937D
:101DE0008F930E9445138AE090E00E94EE030FB6A5
:101DF000F894DEBF0FBECDBFADCE5058BB27AA278B
:101E00000ED091C182D130F087D120F031F49F3FC4
:101E100011F41EF452C10EF4E095E7FB48C1E92F1E
:101E200093D180F3BA17620773078407950718F0F8
:101E300071F49EF5ABC10EF4E0950B2EBA2FA02DD8
:101E40000B01B90190010C01CA01A0011124FF2767
:101E5000591B99F0593F50F4503E68F11A16F04062
:101E6000A22F232F342F4427585FF3CF4695379561
:101E70002795A795F0405395C9F77EF41F16BA0B26
:101E8000620B730B840BBAF09150A1F0FF0FBB1FD4
:101E9000661F771F881FC2F70EC0BA0F621F731F1D
:101EA000841F48F4879577956795B795F7959E3F7A
:101EB00008F0B3CF9395880F08F09927EE0F979508
:101EC00087950895DF93DD27B92FBF7740E85FE35B
:101ED0001616170648075B0710F4D92F5ED19F939B
:101EE0008F937F936F93C3D1E8E6F0E0E9D01BD1E5
:101EF0002F913F914F915F9163D1DD2349F090582D
:101F0000A2EA2AED3FE049EC5FE3D0785D2787DF66
:101F1000DF9109C1A8D008F481E008950CD003C175
:101F2000FBD040F0F2D030F021F45F3F19F0BFC099
:101F300051112DC1C2C008D198F39923C9F355237B
:101F4000B1F3951B550BBB27AA27621773078407AC
:101F500038F09F5F5F4F220F331F441FAA1FA9F362
:101F600033D00E2E3AF0E0E830D091505040E69554
:101F7000001CCAF729D0FE2F27D0660F771F881FB5
:101F8000BB1F261737074807AB07B0E809F0BB0BA4
:101F9000802DBF01FF2793585F4F2AF09E3F5105C8
:101FA00068F085C0F4C05F3FECF3983EDCF38695A3
:101FB00077956795B795F7959F5FC9F7880F911D3E
:101FC0009695879597F90895E1E0660F771F881F2A
:101FD000BB1F621773078407BA0720F0621B730BDD
:101FE000840BBA0BEE1F88F7E0950895E89409C0BA
:101FF00097FB3EF490958095709561957F4F8F4F3C
:102000009F4F9923A9F0F92F96E9BB279395F69551
:10201000879577956795B795F111F8CFFAF4BB0FCF
:1020200011F460FF1BC06F5F7F4F8F4F9F4F16C033
:10203000882311F096E911C0772321F09EE8872FBD
:10204000762F05C0662371F096E8862F70E060E079
:102050002AF09A95660F771F881FDAF7880F9695F2
:10206000879597F90895990F0008550FAA0BE0E896
:10207000FEEF16161706E807F907C0F0121613064A
:10208000E407F50798F0621B730B840B950B39F48A
:102090000A2661F0232B242B252B21F408950A26F0
:1020A00009F4A140A6958FEF811D811D089597F930
:1020B0009F6780E870E060E008959FEF80EC0895EE
:1020C000DF93CF931F930F93FF92EF92DF927B01E9
:1020D0008C01689405C0DA2EEF0172D0FE01E894FD
:1020E000A5912591359145915591AEF3EF0197DE7C
:1020F000FE019701A801DA9479F7DF90EF90FF9045
:102100000F911F91CF91DF91089500240A94161624
:10211000170618060906089500240A9412161306D5
:10212000140605060895092E0394000C11F4882363
:1021300052F0BB0F40F4BF2B11F460FF04C06F5F7F
:102140007F4F8F4F9F4F089557FD9058440F551F55
:1021500059F05F3F71F04795880F97FB991F61F029
:102160009F3F79F087950895121613061406551FA0
:10217000F2CF4695F1DF08C0161617061806991F0C
:10218000F1CF86957105610508940895E894BB2701
:1021900066277727CB0197F908959B01AC0160E092
:1021A00070E080E89FE3BACE0BD0BDCFAEDF28F061
:1021B000B3DF18F0952309F07ACF7FCF1124E7CF52
:1021C000C3DFA0F3959FD1F3950F50E0551F629F99
:1021D000F001729FBB27F00DB11D639FAA27F00D80
:1021E000B11DAA1F649F6627B00DA11D661F829FA7
:1021F0002227B00DA11D621F739FB00DA11D621F8C
:10220000839FA00D611D221F749F3327A00D611DA8
:10221000231F849F600D211D822F762F6A2F11248A
:102220009F5750408AF0E1F088234AF0EE0FFF1FDD
:10223000BB1F661F771F881F91505040A9F79E3F14
:10224000510570F034CFA3CF5F3FECF3983EDCF341
:10225000869577956795B795F795E7959F5FC1F751
:10226000FE2B880F911D9695879597F908959B01F0
:10227000AC019ACFAA1BBB1B51E107C0AA1FBB1F11
:10228000A617B70710F0A61BB70B881F991F5A9502
:10229000A9F780959095BC01CD0108952F923F92AA
:1022A0004F925F926F927F928F929F92AF92BF9266
:1022B000CF92DF92EF92FF920F931F93CF93DF9312
:1022C000CDB7DEB7CA1BDB0B0FB6F894DEBF0FBE6F
:1022D000CDBF09942A88398848885F846E847D84BC
:1022E0008C849B84AA84B984C884DF80EE80FD80BE
:1022F0000C811B81AA81B981CE0FD11D0FB6F89434
:10230000DEBF0FBECDBFED010895283008F027E0F5
:102310003327DA01990F311D87FD91600096610521
:10232000710539F432602E5F3D9330E32A95E1F771
:1023300008959F3F30F080387105610509F03C5FDA
:102340003C5F3D93913008F08068911DDF93CF93FF
:102350001F930F93FF92EF92192F987F9695E92F75
:1023600096959695E90FFF27EE59FE4F992733274B
:10237000EE24FF24A701E70105900894079428F4B0
:10238000360FE71EF81E491F511D660F771F881F65
:10239000991F0694A1F70590079428F4E70EF81EFC
:1023A000491F561FC11D770F881F991F661F06946E
:1023B000A1F70590079428F4F80E491F561FC71F70
:1023C000D11D880F991F661F771F0694A1F70590EE
:1023D000079420F4490F561FC71FD81F990F661F77
:1023E000771F881F0694A9F784911095177041F004
:1023F000D695C79557954795F794E7941A95C1F7E1
:10240000E8E0F1E06894159015913591659195910A
:1024100005907FE27395E118F10A430B560BC90B47
:10242000D009C0F7E10CF11E431F561FC91FD01D74
:102430007EF4703311F48A95E6CFE894015030F0C1
:10244000080F0AF40027021708F4202F2395022F03
:102450007A3328F079E37D932A95E9F710C07D93CC
:102460002A9589F606949795679537951795179449
:10247000E118F10A430B560BC90BD00998F02395CC
:102480007E9173957A3308F070E37C932013B8F74C
:102490007E9170617D9330F0839571E37D9370E35D
:1024A0002A95E1F71124EF90FF900F911F91CF91A2
:1024B000DF91992787FD909508959111D9C28032B7
:1024C00019F089508550D0F70895911108958154DD
:1024D0008A5108F4805E855A0895FC01059006161D
:1024E00021F00020D9F7C00108953197CF01089558
:1024F000FC010590615070400110D8F780959095CF
:102500008E0F9F1F0895FC016150704001900110D3
:10251000D8F7809590958E0F9F1F08950F931F9366
:10252000CF93DF93EC018B01009731F461157105B6
:1025300019F4E0E0F0E037C06EE070E081E090E098
:102540000E94E313FC010097A1F380E88383011547
:10255000110571F01387028781E8838380916801F8
:1025600090916901892B21F4F0936901E09368014E
:102570002097C9F0D187C08783818260838380914F
:102580006A0190916B01892B71F4F0936B01E093D8
:102590006A0180916C0190916D01892B21F4F09377
:1025A0006D01E0936C01CF01DF91CF911F910F91ED
:1025B0000895CF93DF93EC013B8130FF34C036FFA9
:1025C0000AC03F7B3B838E819F8101969F838E83D0
:1025D0002A8130E02AC032FF0FC0E881F981808172
:1025E000992787FD9095009719F430623B831BC0B3
:1025F0003196F983E8830EC0EA85FB85099597FF3C
:1026000009C02B81019611F480E101C080E2822B88
:102610008B8309C02E813F812F5F3F4F3F832E83E5
:102620009C01332702C02FEF3FEFC901DF91CF910B
:1026300008950F931F93CF93DF938C01EB018B8150
:1026400081FD03C00FEF1FEF1AC082FF0DC02E8166
:102650003F818C819D812817390764F4E881F981D5
:102660000193F983E88306C0E885F985802F0995F1
:10267000892B41F78E819F8101969F838E83C801AC
:10268000DF91CF911F910F910895A2E0B0E0EBE4AC
:10269000F3E10C945C11FE01399661917191FA831A
:1026A000E9830AE611E0D8018D919C91DC01139633
:1026B0002C911397286013962C93AF010E948F05DD
:1026C000D801ED91FC912381277F23832296E4E0BA
:1026D0000C947811FB01238120FF13C026FD11C04B
:1026E0008F3F3FEF930769F082832F7D2064238320
:1026F0002681378121503109378326839C01332776
:1027000002C02FEF3FEFC9010895FA01AA27283030
:1027100051F1203181F1E8946F936E7F6E5F7F4FAE
:102720008F4F9F4FAF4FB1E03ED0B4E03CD0670F2A
:10273000781F891F9A1FA11D680F791F8A1F911D7D
:10274000A11D6A0F711D811D911DA11D20D009F4CD
:1027500068943F912AE0269F11243019305D31930F
:10276000DEF6CF010895462F4770405D4193B3E0F8
:102770000FD0C9F7F6CF462F4F70405D4A3318F09F
:10278000495D31FD4052419302D0A9F7EACFB4E050
:10279000A6959795879577956795BA95C9F7009708
:1027A0006105710508959B01AC010A2E06945795A9
:1027B000479537952795BA95C9F7620F731F841F00
:1027C000951FA01D08950F931F93CF93DF93689FCC
:1027D0008001699F100D789F100D1124C8010E947F
:1027E0000114C82FD92F209731F0A80160E070E0C4
:1027F0008C2F0E943B15CE01DF91CF911F910F913D
:1028000008950F931F93CF93DF938230910510F4B7
:1028100082E090E0E0917001F091710120E030E001
:10282000C0E0D0E023C04081518148175907A8F08B
:102830004817590761F482819381209719F09B838F
:102840008A832EC0909371018093700129C0211555
:10285000310529F04217530710F0A90102C0BE014B
:10286000DF0102811381EF019A01F8013097D9F657
:102870002115310509F1281B390B2430310590F45D
:1028800012968D919C9113976115710521F0FB01B2
:102890009383828304C09093710180937001FD0142
:1028A000329644C0FD01E20FF31F819391932250B1
:1028B00031092D933C933AC020916E0130916F0104
:1028C000232B41F4209102013091030130936F01D9
:1028D00020936E01209100013091010121153105F5
:1028E00041F42DB73EB74091040150910501241BDE
:1028F000350BE0916E01F0916F01E217F307A0F440
:102900002E1B3F0B2817390778F0AC014E5F5F4F45
:102910002417350748F04E0F5F1F50936F01409307
:102920006E018193919302C0E0E0F0E0CF01DF916E
:10293000CF911F910F910895EF92FF920F931F93E4
:10294000CF93DF93009709F48EC0DC0112971396A2
:102950001C921E921297E0907001F0907101E114A8
:10296000F10489F42D913C911197280F391F809122
:102970006E0190916F018217930789F5B0936F01F3
:10298000A0936E0170C0E70120E030E001C0EA01D1
:10299000CA17DB0738F44A815B819E014115510556
:1029A000B1F722C0AC0142505109FA01D383C2836E
:1029B00000811181BC01600F711F6C177D0761F4EC
:1029C00068817981600F711F6E5F7F4F71836083B3
:1029D0006A817B81738362832115310529F4B09369
:1029E0007101A09370013FC0F901B383A283E90193
:1029F00049915991C40FD51FAC17BD0771F4DC0183
:102A00009E918E91840F951F0296918380831296DA
:102A10008D919C91139793838283A0E0B0E002C0D4
:102A2000D7017C01F701828193810097C9F7C70123
:102A3000029620813181820F931F20916E01309187
:102A40006F012817390779F4109729F41092710152
:102A50001092700104C013961C921E921297F0926D
:102A60006F01E0926E01CDB7DEB7E6E00C9476110F
:102A7000992788270895DC0101C06D93415050408B
:082A8000E0F70895F894FFCF80
:00000001FF
